{
  "contractName": "SendFunds",
  "abi": [
    {
      "inputs": [
        {
          "internalType": "address payable",
          "name": "_to",
          "type": "address"
        }
      ],
      "name": "sendTo",
      "outputs": [],
      "stateMutability": "payable",
      "type": "function",
      "payable": true
    }
  ],
  "bytecode": "0x608060405234801561001057600080fd5b5060ce8061001f6000396000f3fe608060405260043610601c5760003560e01c8063e6d25245146021575b600080fd5b6030602c366004606a565b6032565b005b6040516001600160a01b038216903480156108fc02916000818181858888f193505050501580156066573d6000803e3d6000fd5b5050565b600060208284031215607b57600080fd5b81356001600160a01b0381168114609157600080fd5b939250505056fea2646970667358221220a9a376f7243195d9a8e65a0bed1c9f5088ab0dc38bffe3161beafa46c0c375b164736f6c63430008070033",
  "immutableReferences": {},
  "source": "pragma solidity ^0.8.7;\r\n\r\ncontract SendFunds {\r\n    function sendTo(address payable _to) external payable {\r\n        _to.transfer(msg.value);\r\n    }\r\n}",
  "sourcePath": "C:\\Users\\om prabhu\\Desktop\\project\\contracts\\SendFunds.sol",
  "compiler": {
    "name": "solc",
    "version": "0.8.7+commit.e28d00a7.Emscripten.clang"
  },
  "schemaVersion": "3.4.13",
  "updatedAt": "2023-03-26T19:36:08.031Z",
  "networkType": "ethereum",
  "devdoc": {
    "kind": "dev",
    "methods": {},
    "version": 1
  },
  "userdoc": {
    "kind": "user",
    "methods": {},
    "version": 1
  }
}